{
  "_format": "hh-sol-artifact-1",
  "contractName": "MasterChef",
  "sourceName": "contracts/MasterChef.sol",
  "abi": [
    {
      "inputs": [
        {
          "internalType": "contract SushiToken",
          "name": "_sushi",
          "type": "address"
        },
        {
          "internalType": "address",
          "name": "_devaddr",
          "type": "address"
        },
        {
          "internalType": "uint256",
          "name": "_sushiPerBlock",
          "type": "uint256"
        },
        {
          "internalType": "uint256",
          "name": "_startBlock",
          "type": "uint256"
        },
        {
          "internalType": "uint256",
          "name": "_bonusEndBlock",
          "type": "uint256"
        }
      ],
      "stateMutability": "nonpayable",
      "type": "constructor"
    },
    {
      "anonymous": false,
      "inputs": [
        {
          "indexed": true,
          "internalType": "address",
          "name": "user",
          "type": "address"
        },
        {
          "indexed": true,
          "internalType": "uint256",
          "name": "pid",
          "type": "uint256"
        },
        {
          "indexed": false,
          "internalType": "uint256",
          "name": "amount",
          "type": "uint256"
        }
      ],
      "name": "Deposit",
      "type": "event"
    },
    {
      "anonymous": false,
      "inputs": [
        {
          "indexed": true,
          "internalType": "address",
          "name": "user",
          "type": "address"
        },
        {
          "indexed": true,
          "internalType": "uint256",
          "name": "pid",
          "type": "uint256"
        },
        {
          "indexed": false,
          "internalType": "uint256",
          "name": "amount",
          "type": "uint256"
        }
      ],
      "name": "EmergencyWithdraw",
      "type": "event"
    },
    {
      "anonymous": false,
      "inputs": [
        {
          "indexed": true,
          "internalType": "address",
          "name": "previousOwner",
          "type": "address"
        },
        {
          "indexed": true,
          "internalType": "address",
          "name": "newOwner",
          "type": "address"
        }
      ],
      "name": "OwnershipTransferred",
      "type": "event"
    },
    {
      "anonymous": false,
      "inputs": [
        {
          "indexed": true,
          "internalType": "address",
          "name": "user",
          "type": "address"
        },
        {
          "indexed": true,
          "internalType": "uint256",
          "name": "pid",
          "type": "uint256"
        },
        {
          "indexed": false,
          "internalType": "uint256",
          "name": "amount",
          "type": "uint256"
        }
      ],
      "name": "Withdraw",
      "type": "event"
    },
    {
      "inputs": [],
      "name": "BONUS_MULTIPLIER",
      "outputs": [
        {
          "internalType": "uint256",
          "name": "",
          "type": "uint256"
        }
      ],
      "stateMutability": "view",
      "type": "function"
    },
    {
      "inputs": [
        {
          "internalType": "uint256",
          "name": "_allocPoint",
          "type": "uint256"
        },
        {
          "internalType": "contract IERC20",
          "name": "_lpToken",
          "type": "address"
        },
        {
          "internalType": "bool",
          "name": "_withUpdate",
          "type": "bool"
        }
      ],
      "name": "add",
      "outputs": [],
      "stateMutability": "nonpayable",
      "type": "function"
    },
    {
      "inputs": [],
      "name": "bonusEndBlock",
      "outputs": [
        {
          "internalType": "uint256",
          "name": "",
          "type": "uint256"
        }
      ],
      "stateMutability": "view",
      "type": "function"
    },
    {
      "inputs": [
        {
          "internalType": "uint256",
          "name": "_pid",
          "type": "uint256"
        },
        {
          "internalType": "uint256",
          "name": "_amount",
          "type": "uint256"
        }
      ],
      "name": "deposit",
      "outputs": [],
      "stateMutability": "nonpayable",
      "type": "function"
    },
    {
      "inputs": [
        {
          "internalType": "address",
          "name": "_devaddr",
          "type": "address"
        }
      ],
      "name": "dev",
      "outputs": [],
      "stateMutability": "nonpayable",
      "type": "function"
    },
    {
      "inputs": [],
      "name": "devaddr",
      "outputs": [
        {
          "internalType": "address",
          "name": "",
          "type": "address"
        }
      ],
      "stateMutability": "view",
      "type": "function"
    },
    {
      "inputs": [
        {
          "internalType": "uint256",
          "name": "_pid",
          "type": "uint256"
        }
      ],
      "name": "emergencyWithdraw",
      "outputs": [],
      "stateMutability": "nonpayable",
      "type": "function"
    },
    {
      "inputs": [
        {
          "internalType": "uint256",
          "name": "_from",
          "type": "uint256"
        },
        {
          "internalType": "uint256",
          "name": "_to",
          "type": "uint256"
        }
      ],
      "name": "getMultiplier",
      "outputs": [
        {
          "internalType": "uint256",
          "name": "",
          "type": "uint256"
        }
      ],
      "stateMutability": "view",
      "type": "function"
    },
    {
      "inputs": [],
      "name": "massUpdatePools",
      "outputs": [],
      "stateMutability": "nonpayable",
      "type": "function"
    },
    {
      "inputs": [
        {
          "internalType": "uint256",
          "name": "_pid",
          "type": "uint256"
        }
      ],
      "name": "migrate",
      "outputs": [],
      "stateMutability": "nonpayable",
      "type": "function"
    },
    {
      "inputs": [],
      "name": "migrator",
      "outputs": [
        {
          "internalType": "contract IMigratorChef",
          "name": "",
          "type": "address"
        }
      ],
      "stateMutability": "view",
      "type": "function"
    },
    {
      "inputs": [],
      "name": "owner",
      "outputs": [
        {
          "internalType": "address",
          "name": "",
          "type": "address"
        }
      ],
      "stateMutability": "view",
      "type": "function"
    },
    {
      "inputs": [
        {
          "internalType": "uint256",
          "name": "_pid",
          "type": "uint256"
        },
        {
          "internalType": "address",
          "name": "_user",
          "type": "address"
        }
      ],
      "name": "pendingSushi",
      "outputs": [
        {
          "internalType": "uint256",
          "name": "",
          "type": "uint256"
        }
      ],
      "stateMutability": "view",
      "type": "function"
    },
    {
      "inputs": [
        {
          "internalType": "uint256",
          "name": "",
          "type": "uint256"
        }
      ],
      "name": "poolInfo",
      "outputs": [
        {
          "internalType": "contract IERC20",
          "name": "lpToken",
          "type": "address"
        },
        {
          "internalType": "uint256",
          "name": "allocPoint",
          "type": "uint256"
        },
        {
          "internalType": "uint256",
          "name": "lastRewardBlock",
          "type": "uint256"
        },
        {
          "internalType": "uint256",
          "name": "accSushiPerShare",
          "type": "uint256"
        }
      ],
      "stateMutability": "view",
      "type": "function"
    },
    {
      "inputs": [],
      "name": "poolLength",
      "outputs": [
        {
          "internalType": "uint256",
          "name": "",
          "type": "uint256"
        }
      ],
      "stateMutability": "view",
      "type": "function"
    },
    {
      "inputs": [],
      "name": "renounceOwnership",
      "outputs": [],
      "stateMutability": "nonpayable",
      "type": "function"
    },
    {
      "inputs": [
        {
          "internalType": "uint256",
          "name": "_pid",
          "type": "uint256"
        },
        {
          "internalType": "uint256",
          "name": "_allocPoint",
          "type": "uint256"
        },
        {
          "internalType": "bool",
          "name": "_withUpdate",
          "type": "bool"
        }
      ],
      "name": "set",
      "outputs": [],
      "stateMutability": "nonpayable",
      "type": "function"
    },
    {
      "inputs": [
        {
          "internalType": "contract IMigratorChef",
          "name": "_migrator",
          "type": "address"
        }
      ],
      "name": "setMigrator",
      "outputs": [],
      "stateMutability": "nonpayable",
      "type": "function"
    },
    {
      "inputs": [],
      "name": "startBlock",
      "outputs": [
        {
          "internalType": "uint256",
          "name": "",
          "type": "uint256"
        }
      ],
      "stateMutability": "view",
      "type": "function"
    },
    {
      "inputs": [],
      "name": "sushi",
      "outputs": [
        {
          "internalType": "contract SushiToken",
          "name": "",
          "type": "address"
        }
      ],
      "stateMutability": "view",
      "type": "function"
    },
    {
      "inputs": [],
      "name": "sushiPerBlock",
      "outputs": [
        {
          "internalType": "uint256",
          "name": "",
          "type": "uint256"
        }
      ],
      "stateMutability": "view",
      "type": "function"
    },
    {
      "inputs": [],
      "name": "totalAllocPoint",
      "outputs": [
        {
          "internalType": "uint256",
          "name": "",
          "type": "uint256"
        }
      ],
      "stateMutability": "view",
      "type": "function"
    },
    {
      "inputs": [
        {
          "internalType": "address",
          "name": "newOwner",
          "type": "address"
        }
      ],
      "name": "transferOwnership",
      "outputs": [],
      "stateMutability": "nonpayable",
      "type": "function"
    },
    {
      "inputs": [
        {
          "internalType": "uint256",
          "name": "_pid",
          "type": "uint256"
        }
      ],
      "name": "updatePool",
      "outputs": [],
      "stateMutability": "nonpayable",
      "type": "function"
    },
    {
      "inputs": [
        {
          "internalType": "uint256",
          "name": "",
          "type": "uint256"
        },
        {
          "internalType": "address",
          "name": "",
          "type": "address"
        }
      ],
      "name": "userInfo",
      "outputs": [
        {
          "internalType": "uint256",
          "name": "amount",
          "type": "uint256"
        },
        {
          "internalType": "uint256",
          "name": "rewardDebt",
          "type": "uint256"
        }
      ],
      "stateMutability": "view",
      "type": "function"
    },
    {
      "inputs": [
        {
          "internalType": "uint256",
          "name": "_pid",
          "type": "uint256"
        },
        {
          "internalType": "uint256",
          "name": "_amount",
          "type": "uint256"
        }
      ],
      "name": "withdraw",
      "outputs": [],
      "stateMutability": "nonpayable",
      "type": "function"
    }
  ],
  "bytecode": "0x608060405260006008553480156200001657600080fd5b5060405162001bdc38038062001bdc8339810160408190526200003991620000d3565b620000443362000083565b600180546001600160a01b039687166001600160a01b031991821617909155600280549590961694169390931790935560045560035560095562000143565b600080546001600160a01b038381166001600160a01b0319831681178455604051919092169283917f8be0079c531659141344cd1fd0a4f28419497f9722a3daafe3b4186f6b6457e09190a35050565b600080600080600060a08688031215620000eb578081fd5b8551620000f8816200012a565b60208701519095506200010b816200012a565b6040870151606088015160809098015196999198509695945092505050565b6001600160a01b03811681146200014057600080fd5b50565b611a8980620001536000396000f3fe608060405234801561001057600080fd5b506004361061013e5760003560e01c8063081e3eda146101435780630a0879031461015a5780631526fe271461017a57806317caf6f1146101b7578063195426ec146101c05780631aed6553146101d35780631eaaa045146101dc57806323cf3118146101f1578063441a3e7014610204578063454b06081461021757806348cd4cb11461022a57806351eb05a6146102335780635312ea8e14610246578063630b5ba11461025957806364482f7914610261578063715018a6146102745780637cd07e471461027c5780638aa285501461028f5780638d88a90e146102975780638da5cb5b146102aa5780638dbb1e3a146102b257806393f1a40b146102c5578063b0bcf42a1461030c578063d49e77cd14610315578063e2bbb15814610328578063f2fde38b1461033b575b600080fd5b6006545b6040519081526020015b60405180910390f35b60015461016d906001600160a01b031681565b60405161015191906118d0565b61018d6101883660046117c6565b61034e565b604080516001600160a01b0390951685526020850193909352918301526060820152608001610151565b61014760085481565b6101476101ce3660046117f6565b610392565b61014760035481565b6101ef6101ea366004611825565b610524565b005b6101ef6101ff366004611772565b61067f565b6101ef610212366004611866565b6106d0565b6101ef6102253660046117c6565b610832565b61014760095481565b6101ef6102413660046117c6565b610ab1565b6101ef6102543660046117c6565b610cda565b6101ef610d8a565b6101ef61026f366004611887565b610db5565b6101ef610e85565b60055461016d906001600160a01b031681565b610147600a81565b6101ef6102a5366004611772565b610ec0565b61016d610f28565b6101476102c0366004611866565b610f37565b6102f76102d33660046117f6565b60076020908152600092835260408084209091529082529020805460019091015482565b60408051928352602083019190915201610151565b61014760045481565b60025461016d906001600160a01b031681565b6101ef610336366004611866565b610f9d565b6101ef610349366004611772565b6110c3565b6006818154811061035e57600080fd5b600091825260209091206004909102018054600182015460028301546003909301546001600160a01b039092169350919084565b600080600684815481106103b657634e487b7160e01b600052603260045260246000fd5b600091825260208083208784526007825260408085206001600160a01b038981168752935280852060049485029092016003810154815492516370a0823160e01b815291975092959294929391909116916370a0823191610419913091016118d0565b60206040518083038186803b15801561043157600080fd5b505afa158015610445573d6000803e3d6000fd5b505050506040513d601f19601f8201168201806040525081019061046991906117de565b905083600201544311801561047d57508015155b156104e9576000610492856002015443610f37565b905060006104c56008546104bf88600101546104b96004548761116090919063ffffffff16565b90611160565b90611173565b90506104e46104dd846104bf8464e8d4a51000611160565b859061117f565b935050505b610517836001015461051164e8d4a510006104bf86886000015461116090919063ffffffff16565b9061118b565b9450505050505b92915050565b3361052d610f28565b6001600160a01b03161461055c5760405162461bcd60e51b815260040161055390611930565b60405180910390fd5b801561056a5761056a610d8a565b6000600954431161057d5760095461057f565b435b60085490915061058f908561117f565b600855604080516080810182526001600160a01b0394851681526020810195865290810191825260006060820181815260068054600181018255925291517ff652222313e28459528d920b65115c16c04f3efc82aaedc97be59f3f377c0d3f600490920291820180546001600160a01b031916919096161790945593517ff652222313e28459528d920b65115c16c04f3efc82aaedc97be59f3f377c0d40840155517ff652222313e28459528d920b65115c16c04f3efc82aaedc97be59f3f377c0d418301555090517ff652222313e28459528d920b65115c16c04f3efc82aaedc97be59f3f377c0d4290910155565b33610688610f28565b6001600160a01b0316146106ae5760405162461bcd60e51b815260040161055390611930565b600580546001600160a01b0319166001600160a01b0392909216919091179055565b6000600683815481106106f357634e487b7160e01b600052603260045260246000fd5b6000918252602080832086845260078252604080852033865290925292208054600490920290920192508311156107615760405162461bcd60e51b81526020600482015260126024820152711dda5d1a191c985dce881b9bdd0819dbdbd960721b6044820152606401610553565b61076a84610ab1565b6000610798826001015461051164e8d4a510006104bf8760030154876000015461116090919063ffffffff16565b905080156107aa576107aa3382611197565b83156107d45781546107bc908561118b565b825582546107d4906001600160a01b03163386611337565b600383015482546107ef9164e8d4a51000916104bf91611160565b6001830155604051848152859033907ff279e6a1f5e320cca91135676d9cb6e44ca8a08c0b88342bcdb1144f6511b5689060200160405180910390a35050505050565b6005546001600160a01b03166108815760405162461bcd60e51b815260206004820152601460248201527336b4b3b930ba329d1037379036b4b3b930ba37b960611b6044820152606401610553565b6000600682815481106108a457634e487b7160e01b600052603260045260246000fd5b60009182526020822060049182020180546040516370a0823160e01b81529194506001600160a01b0316929183916370a08231916108e4913091016118d0565b60206040518083038186803b1580156108fc57600080fd5b505afa158015610910573d6000803e3d6000fd5b505050506040513d601f19601f8201168201806040525081019061093491906117de565b600554909150610951906001600160a01b0384811691168361138d565b60055460405163ce5494bb60e01b81526000916001600160a01b03169063ce5494bb906109829086906004016118d0565b602060405180830381600087803b15801561099c57600080fd5b505af11580156109b0573d6000803e3d6000fd5b505050506040513d601f19601f820116820180604052508101906109d491906117aa565b6040516370a0823160e01b81529091506001600160a01b038216906370a0823190610a039030906004016118d0565b60206040518083038186803b158015610a1b57600080fd5b505afa158015610a2f573d6000803e3d6000fd5b505050506040513d601f19601f82011682018060405250810190610a5391906117de565b8214610a905760405162461bcd60e51b815260206004820152600c60248201526b1b5a59dc985d194e8818985960a21b6044820152606401610553565b83546001600160a01b0319166001600160a01b039190911617909255505050565b600060068281548110610ad457634e487b7160e01b600052603260045260246000fd5b9060005260206000209060040201905080600201544311610af55750610cd7565b80546040516370a0823160e01b81526000916001600160a01b0316906370a0823190610b259030906004016118d0565b60206040518083038186803b158015610b3d57600080fd5b505afa158015610b51573d6000803e3d6000fd5b505050506040513d601f19601f82011682018060405250810190610b7591906117de565b905080610b89575043600290910155610cd7565b6000610b99836002015443610f37565b90506000610bc06008546104bf86600101546104b96004548761116090919063ffffffff16565b6001546002549192506001600160a01b03908116916340c10f199116610be784600a611173565b6040518363ffffffff1660e01b8152600401610c049291906118e4565b600060405180830381600087803b158015610c1e57600080fd5b505af1158015610c32573d6000803e3d6000fd5b50506001546040516340c10f1960e01b81526001600160a01b0390911692506340c10f199150610c6890309085906004016118e4565b600060405180830381600087803b158015610c8257600080fd5b505af1158015610c96573d6000803e3d6000fd5b50505050610cc4610cb9846104bf64e8d4a510008561116090919063ffffffff16565b60038601549061117f565b6003850155505043600290920191909155505b50565b600060068281548110610cfd57634e487b7160e01b600052603260045260246000fd5b60009182526020808320858452600782526040808520338087529352909320805460049093029093018054909450610d42926001600160a01b03919091169190611337565b8054604051908152839033907fbb757047c2b5f3974fe26b7c10f732e7bce710b0952a71082702781e62ae05959060200160405180910390a360008082556001909101555050565b60065460005b81811015610db157610da181610ab1565b610daa816119ff565b9050610d90565b5050565b33610dbe610f28565b6001600160a01b031614610de45760405162461bcd60e51b815260040161055390611930565b8015610df257610df2610d8a565b610e4382610e3d60068681548110610e1a57634e487b7160e01b600052603260045260246000fd5b90600052602060002090600402016001015460085461118b90919063ffffffff16565b9061117f565b6008819055508160068481548110610e6b57634e487b7160e01b600052603260045260246000fd5b906000526020600020906004020160010181905550505050565b33610e8e610f28565b6001600160a01b031614610eb45760405162461bcd60e51b815260040161055390611930565b610ebe60006114a0565b565b6002546001600160a01b03163314610f065760405162461bcd60e51b81526020600482015260096024820152686465763a207775743f60b81b6044820152606401610553565b600280546001600160a01b0319166001600160a01b0392909216919091179055565b6000546001600160a01b031690565b60006003548211610f5857610f51600a6104b9848661118b565b905061051e565b6003548310610f6b57610f51828461118b565b610f51610f836003548461118b90919063ffffffff16565b610e3d600a6104b98760035461118b90919063ffffffff16565b600060068381548110610fc057634e487b7160e01b600052603260045260246000fd5b60009182526020808320868452600782526040808520338652909252922060049091029091019150610ff184610ab1565b80541561103a576000611026826001015461051164e8d4a510006104bf8760030154876000015461116090919063ffffffff16565b90508015611038576110383382611197565b505b8215611066578154611057906001600160a01b03163330866114f0565b8054611063908461117f565b81555b600382015481546110819164e8d4a51000916104bf91611160565b6001820155604051838152849033907f90890809c654f11d6e72a28fa60149770a0d11ec6c92319d6ceb2bb0a4ea1a159060200160405180910390a350505050565b336110cc610f28565b6001600160a01b0316146110f25760405162461bcd60e51b815260040161055390611930565b6001600160a01b0381166111575760405162461bcd60e51b815260206004820152602660248201527f4f776e61626c653a206e6577206f776e657220697320746865207a65726f206160448201526564647265737360d01b6064820152608401610553565b610cd7816114a0565b600061116c828461199d565b9392505050565b600061116c828461197d565b600061116c8284611965565b600061116c82846119bc565b6001546040516370a0823160e01b81526000916001600160a01b0316906370a08231906111c89030906004016118d0565b60206040518083038186803b1580156111e057600080fd5b505afa1580156111f4573d6000803e3d6000fd5b505050506040513d601f19601f8201168201806040525081019061121891906117de565b9050808211156112ac5760015460405163a9059cbb60e01b81526001600160a01b039091169063a9059cbb9061125490869085906004016118e4565b602060405180830381600087803b15801561126e57600080fd5b505af1158015611282573d6000803e3d6000fd5b505050506040513d601f19601f820116820180604052508101906112a6919061178e565b50611332565b60015460405163a9059cbb60e01b81526001600160a01b039091169063a9059cbb906112de90869086906004016118e4565b602060405180830381600087803b1580156112f857600080fd5b505af115801561130c573d6000803e3d6000fd5b505050506040513d601f19601f82011682018060405250810190611330919061178e565b505b505050565b6113328363a9059cbb60e01b84846040516024016113569291906118e4565b60408051601f198184030181529190526020810180516001600160e01b03166001600160e01b031990931692909217909152611528565b8015806114165750604051636eb1769f60e11b81523060048201526001600160a01b03838116602483015284169063dd62ed3e9060440160206040518083038186803b1580156113dc57600080fd5b505afa1580156113f0573d6000803e3d6000fd5b505050506040513d601f19601f8201168201806040525081019061141491906117de565b155b6114815760405162461bcd60e51b815260206004820152603660248201527f5361666545524332303a20617070726f76652066726f6d206e6f6e2d7a65726f60448201527520746f206e6f6e2d7a65726f20616c6c6f77616e636560501b6064820152608401610553565b6113328363095ea7b360e01b84846040516024016113569291906118e4565b600080546001600160a01b038381166001600160a01b0319831681178455604051919092169283917f8be0079c531659141344cd1fd0a4f28419497f9722a3daafe3b4186f6b6457e09190a35050565b6040516001600160a01b03808516602483015283166044820152606481018290526113309085906323b872dd60e01b90608401611356565b600061157d826040518060400160405280602081526020017f5361666545524332303a206c6f772d6c6576656c2063616c6c206661696c6564815250856001600160a01b03166115fa9092919063ffffffff16565b805190915015611332578080602001905181019061159b919061178e565b6113325760405162461bcd60e51b815260206004820152602a60248201527f5361666545524332303a204552433230206f7065726174696f6e20646964206e6044820152691bdd081cdd58d8d9595960b21b6064820152608401610553565b60606116098484600085611611565b949350505050565b6060824710156116725760405162461bcd60e51b815260206004820152602660248201527f416464726573733a20696e73756666696369656e742062616c616e636520666f6044820152651c8818d85b1b60d21b6064820152608401610553565b843b6116c05760405162461bcd60e51b815260206004820152601d60248201527f416464726573733a2063616c6c20746f206e6f6e2d636f6e74726163740000006044820152606401610553565b600080866001600160a01b031685876040516116dc91906118b4565b60006040518083038185875af1925050503d8060008114611719576040519150601f19603f3d011682016040523d82523d6000602084013e61171e565b606091505b509150915061172e828286611739565b979650505050505050565b6060831561174857508161116c565b8251156117585782518084602001fd5b8160405162461bcd60e51b815260040161055391906118fd565b600060208284031215611783578081fd5b813561116c81611a30565b60006020828403121561179f578081fd5b815161116c81611a45565b6000602082840312156117bb578081fd5b815161116c81611a30565b6000602082840312156117d7578081fd5b5035919050565b6000602082840312156117ef578081fd5b5051919050565b60008060408385031215611808578081fd5b82359150602083013561181a81611a30565b809150509250929050565b600080600060608486031215611839578081fd5b83359250602084013561184b81611a30565b9150604084013561185b81611a45565b809150509250925092565b60008060408385031215611878578182fd5b50508035926020909101359150565b60008060006060848603121561189b578283fd5b8335925060208401359150604084013561185b81611a45565b600082516118c68184602087016119d3565b9190910192915050565b6001600160a01b0391909116815260200190565b6001600160a01b03929092168252602082015260400190565b600060208252825180602084015261191c8160408501602087016119d3565b601f01601f19169190910160400192915050565b6020808252818101527f4f776e61626c653a2063616c6c6572206973206e6f7420746865206f776e6572604082015260600190565b6000821982111561197857611978611a1a565b500190565b60008261199857634e487b7160e01b81526012600452602481fd5b500490565b60008160001904831182151516156119b7576119b7611a1a565b500290565b6000828210156119ce576119ce611a1a565b500390565b60005b838110156119ee5781810151838201526020016119d6565b838111156113305750506000910152565b6000600019821415611a1357611a13611a1a565b5060010190565b634e487b7160e01b600052601160045260246000fd5b6001600160a01b0381168114610cd757600080fd5b8015158114610cd757600080fdfea2646970667358221220afae27535b9cfef45d0620eb2fddd4b0c9e4110ebb89eaa97876f2c1434f789e64736f6c63430008030033",
  "linkReferences": {},
  "deployedLinkReferences": {}
}